:0300000002000EED
:0C000E00787FE4F6D8FD75810E020055E5
:10012E00120003120162E508B401FB70047F018026
:0A013E00027F008F0812010F80EC11
:03018B00010D0063
:0C019B0053A0F843A006C2917580FF221B
:10014800D291AF0D050D7401A807088002C333D8FA
:09015800FCF4F580530D07C2917F
:01016100227B
:09018E0004090000000001080052
:10016200438E805389F0438901E4F58A758C83C2FA
:080172008DD2AFD2A9D28C227C
:03000B0002009A56
:10009A00C0E0C0F0C083C082C0D075D000C000C02C
:1000AA0001C002C003C004C005C006C007758A00AB
:1000BA00758C83E50C2401F50CE4350BF50BE4355E
:1000CA000AF50AE43509F509E47FE87E03FDFCAB8D
:1000DA000CAA0BA90AA809C312017A700DF50CF52E
:1000EA000BF50AF509750801B293D007D006D005B9
:1000FA00D004D003D002D001D000D0D0D082D08397
:05010A00D0F0D0E0324E
:0A01A700C0F9A4B0999282F880908C
:03019700010E0056
:06000300C2917580FF228E
:10010F00D29153A0F843A005AF0E050EEF9001A7B3
:0E011F0093F580E50E75F00A8485F00EC2910E
:01012D0022AF
:10001A0002012EE493A3F8E493A34003F68001F2CD
:10002A0008DFF48029E493A3F85407240CC8C333E7
:10003A00C4540F4420C8834004F456800146F6DFB6
:10004A00E4800B010204081020408090018BE47EBA
:10005A00019360BCA3FF543F30E509541FFEE493AB
:10006A00A360010ECF54C025E060A840B8E493A372
:10007A00FAE493A3F8E493A3C8C582C8CAC583CA9D
:10008A00F0A3C8C582C8CAC583CADFE9DEE780BE55
:01019A000064
:10017A00EB9FF5F0EA9E42F0E99D42F0E89C45F0DB
:01018A002252
:00000001FF
