:030000000200ED0E
:0C00ED00787FE4F6D8FD75811B02013419
:100244007510FFE4F5111202B412029CE51760FC6C
:10025400E4F517AF101510FCFDFE1201F1AF110506
:10026400117401A807088002C333D8FCFF120003ED
:0502740053110780D7C3
:0A02D700C0F9A4B0999282F880905B
:0302CA0001080028
:1002B400C291E4F5937594FF7580FF7F0778097404
:0502C400FFF608DFFC5D
:0102C9002212
:10027900D29153A0F8E50875F00784E5F042A0AFE4
:10028900080508EF75F00784740925F0F8E6F5808C
:02029900C29110
:01029B002240
:0801F1008F158E148D138C1282
:1001F900751606AF161516EF6040E47B0AFAF9F892
:10020900AF15AE14AD13AC1212004A74D72BF58298
:1002190074023AF583E493FF74092516F8A607AF2B
:1002290015AE14AD13AC12E47B0AFAF9F812004AC0
:0A0239008F158E148D138C1280B9FE
:010243002298
:05000300EFF4F50F22EF
:0902CD00041800000000011700F4
:10029C00438E805389F0438901E4F58A758C83C2BF
:0802AC008DD2AFD2A9D28C2241
:03000B0002017976
:10017900C0E0C0F0C083C082C0D075D000C000C04C
:1001890001C002C003C004C005C006C007758A00CB
:10019900758C83E51B2401F51BE4351AF51AE43542
:1001A90019F519E43518F518120279E47FF47E017E
:1001B900FDFCAB1BAA1AA919A818C31200DC700D03
:1001C900F51BF51AF519F518751701B293D007D073
:1001D90006D005D004D003D002D001D000D0D0D0B1
:0801E90082D083D0F0D0E03297
:1000F900020244E493A3F8E493A34003F68001F2D7
:1001090008DFF48029E493A3F85407240CC8C33307
:10011900C4540F4420C8834004F456800146F6DFD6
:10012900E4800B01020408102040809002CAE47E9A
:10013900019360BCA3FF543F30E509541FFEE493CB
:10014900A360010ECF54C025E060A840B8E493A392
:10015900FAE493A3F8E493A3C8C582C8CAC583CABD
:10016900F0A3C8C582C8CAC583CADFE9DEE780BE75
:0102D6000027
:10000E0075F008758200EF2FFFEE33FECD33CDCCA9
:10001E0033CCC58233C5829BED9AEC99E58298402C
:10002E000CF582EE9BFEED9AFDEC99FC0FD5F0D609
:10003E00E4CEFBE4CDFAE4CCF9A88222B800C1B933
:10004E000059BA002DEC8BF084CFCECDFCE5F0CB71
:10005E00F97818EF2FFFEE33FEED33FDEC33FCEBAA
:10006E0033FB10D703994004EB99FB0FD8E5E4F965
:10007E00FA227818EF2FFFEE33FEED33FDEC33FC52
:10008E00C933C910D7059BE99A4007EC9BFCE99A46
:10009E00F90FD8E0E4C9FAE4CCFB2275F010EF2F8B
:1000AE00FFEE33FEED33FDCC33CCC833C810D7078B
:1000BE009BEC9AE899400AED9BFDEC9AFCE899F8C6
:0E00CE000FD5F0DAE4CDFBE4CCFAE4C8F92259
:1000DC00EB9FF5F0EA9E42F0E99D42F0E89C45F07A
:0100EC0022F1
:00000001FF
