:03000000020026D5
:0C002600787FE4F6D8FD75811102006DB2
:1002560077656C636F6D6520746F204348494E4126
:1002660000202020202020202020202020202020A8
:02027600200066
:10016800D2AF1201D61202D91203007BFF7A0279AC
:1001780056E4FDFF1201A1E50A60FCE4F50A7BFFE5
:100188007A0279677D01FF1201A17B017A0079006B
:090198007D01E4FF1201A180DEEB
:1001D6007F381202917F057E001202C17F3812021B
:1001E600917F057E001202C17F381202917F057E43
:1001F600001202C17F0C1202917F061202917F014A
:0302060002029160
:1002EE007580FFD2A1C2A0D292AF80C292EF20E75A
:0102FE00F609
:0102FF0022DC
:10029100C2A0C2A18F807F017E00120209D292C248
:0802A100927F057E000202C1FC
:1002A900D2A0C2A18F807F017E00120209D292C220
:0802B900927F057E000202C1E4
:1001A1008B0F8A108911ED5401FEC4333354C02FD3
:1001B1004480FF120291AB0FAA10A91112027860BC
:1001C100130511E5117002051014F9120278FF12DE
:0501D10002A980E222FA
:10020900AD07EEFF0000001D4D601C00000000005E
:10021900000000AE051DEEB4FF031F8006000000BC
:07022900000000ED4F70E43E
:0102300022AB
:1002C100AB07AA06EB1BAE0270011A4E60097FE86C
:0802D1007E0312020980ED22F8
:10000300546869732069732061204C43443136304E
:0D001300322074657374212121200D0A0034
:1000B200606400000000000000000000000000007A
:1000C200000000000000000000000000000000002E
:1000D200000000000000000000000000000000001E
:1000E200000000000000000000000000000000000E
:1000F20000000000000000000000000000000000FE
:1001020000000000000000000000000000000000ED
:0B0112000000000000000000010A00D7
:1002D90053877F759850438E04759C98438E0143CC
:0502E9008E10D2AC22D2
:090300007BFF7A0079030202314F
:080309008F993099FDC2992281
:100231008B0F8A108911AB0FAA10A91112027860D5
:10024100130511E5117002051014F9120278FF125D
:05025100030980E22218
:08031100E50A6003E4F50A228D
:0300230002011EB9
:0D011E00C0E0C083C082C0D075D000C00713
:10012B0030982FC298E599640A6013AF08050874DC
:10013B00002FF582E43400F583E599F08014B29337
:10014B0074FF2508F582E434FFF583E4F0F50875B8
:02015B000A0197
:0B015D00D007D0D0D082D083D0E03299
:10003200020168E493A3F8E493A34003F68001F27B
:1000420008DFF48029E493A3F85407240CC8C333CF
:10005200C4540F4420C8834004F456800146F6DF9E
:10006200E4800B01020408102040809000B2E47E7C
:10007200019360BCA3FF543F30E509541FFEE49393
:10008200A360010ECF54C025E060A840B8E493A35A
:10009200FAE493A3F8E493A3C8C582C8CAC583CA85
:1000A200F0A3C8C582C8CAC583CADFE9DEE780BE3D
:01011D0000E1
:10027800BB010689828A83E0225002E722BBFE0284
:09028800E32289828A83E49322B7
:00000001FF
