:030000000201AC4E
:0C01AC00787FE4F6D8FD7581260201F38F
:1005610054686520436F6D6D616E64204973204549
:0805710072726F72212121005A
:0602C4000423000000000D
:10011E00D2AF12000E1205A71205911204C4E514F7
:10012E00600BD28CE4F514851711851816E5156051
:10013E000DE4F515851117851618F511F516E5114F
:10014E00601CE51E6018E4F51EE5262401F526E484
:10015E003525F525E43524F524E43523F523E51678
:10016E00601FE51E601BE4F51EE52624FFF526E55F
:10017E002534FFF525E52434FFF524E52334FFF57A
:10018E0023E513600CE4F5137BFF7A057961120504
:0E019E0019AF26AE25AD24AC2312042C8080B0
:0B05BD00C0F9A4B0999282F88090FF72
:10059100C291E4F5937594FF7580FF7F0778097424
:0505A100FFF608DFFC7D
:0105A6002232
:10053E00D29153A0F8E50875F00784E5F042A0AF1C
:10054E00080508EF75F00784740925F0F8E6F580C4
:02055E00C29148
:010560002278
:08042C008F1C8E1B8D1A8C1928
:10043400751D06E47B0AFAF9F8AF1CAE1BAD1AACC5
:100444001912007B74BD2BF58274053AF583E4938D
:10045400FF7408251DF8A607AF1CAE1BAD1AAC1916
:10046400E47B0AFAF9F812007B8F1C8E1B8D1A8C20
:0404740019D51DBFBA
:010478002261
:0505C800EFF4F50F2225
:1004F100AD07EEFF0000001D4D601C000000000074
:10050100000000AE051DEEB4FF031F8006000000D1
:07051100000000ED4F70E453
:0105180022C0
:10057900AB07AA06EB1BAE0270011A4E60097FE8B1
:080589007E031204F180ED2253
:0902CA00041F00000000011E00E9
:1005A700438E805389F0438901E4F58A758C83C2B1
:0605B7008DD2A9C28C22C6
:03000B0002033FAE
:10033F00C0E0C0F0C083C082C0D075D000C000C084
:10034F0001C002C003C004C005C006C007758A0003
:10035F00758C83E5222401F522E43521F521E4355E
:10036F0020F520E4351FF51F12053EE47FE87E03DC
:10037F00FDFCAB22AA21A920A81FC312010D700DED
:10038F00F522F521F520F51F751E01B293D007D088
:10039F0006D005D004D003D002D001D000D0D0D0E9
:0803AF0082D083D0F0D0E032CF
:100238002020204E554D5F4C454420436F6D6D6125
:100248006E64200D0A0031A1A25354415254202D4E
:100258002D20737461727420636F756E74206E75CF
:100268006D6265720D0A0032A1A253544F50202DC1
:100278002D2073746F7020636F756E74206E756DAA
:100288006265720D0A0033A1A2504F534954495672
:1002980045202D2D20636F756E742075700D0A0032
:1002A80034A1A24E45474154495645202D2D20637F
:0C02B8006F756E7420646F776E0D0A0085
:1002D3006064000000000000000000000000000057
:1002E300000000000000000000000000000000000B
:1002F30000000000000000000000000000000000FB
:1003030000000000000000000000000000000000EA
:1003130000000000000000000000000000000000DA
:1003230000000000000000000000000000000000CA
:0B0333000000000000000000011200AC
:10000E0053877F759850438E04759C98438E014399
:05001E008E10D2AC229F
:1004C4007BFF7A0279381205197BFF7A02794E1282
:1004D40005197BFF7A02796F1205197BFF7A02797D
:0D04E4008E1205197BFF7A0279A802051916
:080003008F993099FDC299228A
:100519008B198A1A891BAB19AA1AA91B1200266002
:1005290013051BE51B7002051A14F9120026FF12A8
:05053900000380E22236
:1003B700E5126070E4F512900000E0FF64537018D6
:1003C700A3E0B45413A3E0B4410EA3E0B45209A3CD
:1003D700E0B4540475140122EFB45315900001E002
:1003E700B4540EA3E0B44F09A3E0B450047515014B
:1003F70022900000E0B45011A3E0B44F0CA3E0B486
:100407005307751101E4F51622900000E0B44E1170
:10041700A3E0B4450CA3E0B44707751601E4F51152
:05042700227513012203
:030023000204795B
:0D047900C0E0C083C082C0D075D000C007B5
:10048600309830C298E599640A6013AF100510746D
:10049600002FF582E43400F583E599F080127400AC
:1004A6002510F582E43400F583E4F0F510751201A9
:0304B6001203B777
:0B04B900D007D0D0D082D083D0E0323A
:1001B80002011EE493A3F8E493A34003F68001F23E
:1001C80008DFF48029E493A3F85407240CC8C33348
:1001D800C4540F4420C8834004F456800146F6DF17
:1001E800E4800B01020408102040809002C4E47EE1
:1001F800019360BCA3FF543F30E509541FFEE4930C
:10020800A360010ECF54C025E060A840B8E493A3D2
:10021800FAE493A3F8E493A3C8C582C8CAC583CAFD
:10022800F0A3C8C582C8CAC583CADFE9DEE780BEB5
:01033E0000BE
:10002600BB010689828A83E0225002E722BBFE02D8
:09003600E32289828A83E493220B
:10003F0075F008758200EF2FFFEE33FECD33CDCC78
:10004F0033CCC58233C5829BED9AEC99E5829840FB
:10005F000CF582EE9BFEED9AFDEC99FC0FD5F0D6D8
:10006F00E4CEFBE4CDFAE4CCF9A88222B800C1B902
:10007F000059BA002DEC8BF084CFCECDFCE5F0CB40
:10008F00F97818EF2FFFEE33FEED33FDEC33FCEB79
:10009F0033FB10D703994004EB99FB0FD8E5E4F934
:1000AF00FA227818EF2FFFEE33FEED33FDEC33FC21
:1000BF00C933C910D7059BE99A4007EC9BFCE99A15
:1000CF00F90FD8E0E4C9FAE4CCFB2275F010EF2F5A
:1000DF00FFEE33FEED33FDCC33CCC833C810D7075A
:1000EF009BEC9AE899400AED9BFDEC9AFCE899F895
:0E00FF000FD5F0DAE4CDFBE4CCFAE4C8F92228
:10010D00EB9FF5F0EA9E42F0E99D42F0E89C45F048
:01011D0022BF
:00000001FF
